:020000040000FA
:100000000C9454010C9471010C9471010C947101C5
:100010000C9471010C9471010C9471010C94710198
:100020000C9471010C9471010C9471010C94710188
:100030000C9471010C9471010C9471010C94710178
:100040000C9488020C9471010C9471010C94710150
:100050000C9471010C9471010C9471010C94710158
:100060000C9471010C947101000000080002010061
:10007000000304070000000000000000007CFE9266
:100080008AFE7C00008088FEFE80800000C4E6A21C
:10009000929E8C000044C69292FE6C000030282490
:1000A000FEFE2000004ECE8A8AFA7200007CFE928C
:1000B00092F66400000606E2FA1E0600006CFE924C
:1000C00092FE6C00004CDE9292FE7C000040E8A89C
:1000D000A8F8F00000FEFE9090F060000070F88834
:1000E00088D850000060F09090FEFE000070F8A8E4
:1000F000A8B830000020FCFE222604000018BCA492
:10010000A4FC7C0000FEFE1010F0E000000080F473
:10011000F48000000060E080FA7A000000FEFE201B
:1001200070D88800000000FEFE00000000F8F830E3
:10013000E030F8F800F8F81818F8F0000070F888C7
:1001400088F8700000FCFC24243C180000183C24B3
:10015000FCFC80C000F8F808083830000090A8A81F
:10016000A8A84800001010FCFC1010000078F880CF
:1001700080F8F800003070C0C07030000078F8805F
:10018000F080F8780088D87070D888000018B8A07F
:10019000A0F878000000C8E8B898000000FCFE1243
:1001A00012FEFC0000FEFE9292FE6C00007CFE82BD
:1001B00082C6440000FEFE8282FE7C0000FEFE92AB
:1001C0009292820000FEFE1212120200007CFE8259
:1001D000A2E6640000FEFE1010FEFE00000082FE9B
:1001E000FE8200000060E082FE7E020000FEFE381B
:1001F0006CC6820000FEFE808080800000FEFE0C47
:10020000180CFEFE00FEFE0C1830FEFE007CFE8286
:1002100082FE7C0000FEFE22223E1C00003C7E424C
:1002200062FEBC0000FEFE3272DE8C00004CDE92EC
:1002300092F66400000602FEFE020600007EFE80CA
:1002400080FEFE00003E7EC0C07E3E0000FEFE60DE
:100250003060FEFE00C6EE381038EEC6000E1EF00E
:10026000F01E0E0000C2E2B29A8E8600000000006E
:10027000250028002B0000000000240027002A0091
:10028000040404040404040402020202020203033C
:100290000303030301020408102040800102040844
:1002A000102001020408102011241FBECFEFD8E057
:1002B000DEBFCDBF11E0A0E0B1E0EEE4FAE002C0A5
:1002C00005900D92A431B107D9F721E0A4E1B1E086
:1002D00001C01D92A637B207E1F70E94D2020C942A
:1002E00025050C94000090E0FC01EC56FD4F249194
:1002F00080589D4FFC018491882399F090E0880FED
:10030000991FFC01EA58FD4FA591B491FC01E459F5
:10031000FD4F859194918FB7F894EC91E22BEC937B
:100320008FBF089590E0FC01E859FF4F2491FC0134
:10033000EC56FD4F3491FC01E058FD4FE491EE2363
:10034000C9F0222339F0233001F1A8F4213019F14A
:10035000223029F1F0E0EE0FFF1FE459FD4FA59187
:10036000B4918FB7F894EC91611126C030953E237B
:100370003C938FBF08952730A9F02830C9F024306E
:1003800049F7809180008F7D03C0809180008F7736
:1003900080938000DFCF84B58F7784BDDBCF84B5B9
:1003A0008F7DFBCF8091B0008F778093B000D2CF4C
:1003B0008091B0008F7DF9CF3E2BDACF3FB7F89414
:1003C0008091190190911A01A0911B01B0911C011B
:1003D00026B5A89B05C02F3F19F00196A11DB11DA0
:1003E0003FBFBA2FA92F982F8827BC01CD01620FDC
:1003F000711D811D911D42E0660F771F881F991F97
:100400004A95D1F70895CF92DF92EF92FF920F9322
:100410001F93CF93DF9300D0CDB7DEB769834A83B4
:10042000880F991F0091730110917401000F111F23
:10043000EDE1F1E09F012D5131402017310714F417
:100440001192F8CF2981FC01E35EFE4F21838A815E
:10045000808360E0809171010E9492011016110664
:1004600004F501501109F801E35EFE4FE080D090E1
:100470006F01C0906D0188E0F82E6E2D661F662713
:10048000661F8C2D0E949201EE0C61E08D2D0E9462
:10049000920160E08D2D0E949201FA94F110EDCF4F
:1004A000DDCF61E0809171010F900F90DF91CF91CE
:1004B0001F910F91FF90EF90DF90CF900C949201DD
:1004C000EF92FF921F93CF93DF93209173013091AE
:1004D000740182179307B4F4EC0123E0880F991F8D
:1004E0002A95E1F79C01235D3E4F790111E0F70168
:1004F00011927F0140E0612FCE010E9403021F5F35
:100500001930A9F7DF91CF911F91FF90EF900895D7
:100510001F920F920FB60F9211242F933F938F9338
:100520009F93AF93BF938091150190911601A09175
:100530001701B09118013091140123E0230F2D37DA
:1005400058F50196A11DB11D20931401809315014A
:1005500090931601A0931701B0931801809119018F
:1005600090911A01A0911B01B0911C010196A11D4F
:10057000B11D8093190190931A01A0931B01B093B0
:100580001C01BF91AF919F918F913F912F910F903F
:100590000FBE0F901F90189526E8230F0296A11DFD
:1005A000B11DD2CFCF93DF93CDB7DEB72E970FB665
:1005B000F894DEBF0FBECDBF789484B5826084BD51
:1005C00084B5816084BD85B5826085BD85B5816057
:1005D00085BD80916E00816080936E0010928100D5
:1005E0008091810082608093810080918100816090
:1005F0008093810080918000816080938000809151
:10060000B10084608093B1008091B00081608093DC
:10061000B00080917A00846080937A0080917A00A3
:10062000826080937A0080917A00816080937A0062
:1006300080917A00806880937A001092C1000BE06C
:1006400010E010936E0100936D018DE090E09093A7
:10065000700180936F018CE090E090937201809321
:1006600071011092750181E090E090937401809384
:1006700073018BE00E94730180916F010E947301EE
:10068000809171010E94730161E0809171010E946B
:10069000920110936E0100936D01EDE2F1E08DE6A1
:1006A00091E011928E179F07E1F710E000E0809132
:1006B0007301909174010817190744F540E06FE049
:1006C000C8010E9403028091730190917401081780
:1006D00019072CF447E06BE0C8010E94030240E0D8
:1006E00069E0C8010E940302C8010E946002809173
:1006F000730190917401081719072CF440E06CE025
:10070000C8010E9403020F5F1F4FD1CF10E000E02D
:10071000809173019091740108171907BCF441E0AE
:100720006CE0C8010E9403028091730190917401F2
:10073000081719072CF448E06AE0C8010E94030278
:10074000C8010E9460020F5F1F4FE2CF1092750137
:10075000F12CE12C0091730110917401E016F10667
:100760003CF4C7010E9460022FEFE21AF20AF2CFB6
:1007700063E0000F111F6A95E1F7013B3FEF13079C
:100780000CF45BC168E071E07A8769874801280151
:1007900070E5470E511CE985FA858191FA87E98752
:1007A00098E0E0E0F1E0DE01119601900D929A955B
:1007B000E1F79FEB980F9A3138F5F8E08F02C0010E
:1007C0001124DE01119630E020E08C569040FC01AF
:1007D000E20FF31FE491ED932F5F3F4F2830310577
:1007E000B1F7809175018111A2C0F12CE12CB70104
:1007F000680D791D90E080E0683071050CF442C00E
:10080000019668507109F8CF9FE9980F9A31A8F4C2
:1008100028E08202C0011124DE01119630E020E0C0
:100820008C539240FC01E20FF31FE491ED932F5F94
:100830003F4F28303105B1F7D4CF90ED980F9A3063
:10084000A8F438E08302C0011124DE01119630E0E3
:1008500020E084509140FC01E20FF31FE491ED93FE
:100860002F5F3F4F28303105B1F7BBCF803209F001
:10087000B8CF19821A821B821C821D821E821F829F
:100880001886AFCF209173013091740182179307BE
:1008900004F568307105A8F4E1E0F0E0EC0FFD1F0D
:1008A000EE0DFF1D4081FC0153E0EE0FFF1F5A9536
:1008B000E1F7E35EFE4FE60FF71F408B6F5F0E948C
:1008C00003026FEFE61AF60A78E0E716F10409F082
:1008D0008ECF38E0830E911C8414950409F05BCF11
:1008E0000E94DE014B015C0188ECC82ED12CE12C6A
:1008F000F12C0E94DE01681979098A099B09683E7A
:10090000734081059105A8F361E0C61AD108E1089A
:10091000F10878EE870E73E0971EA11CB11CC1147C
:10092000D104E104F10429F70150110926CF809187
:10093000730190917401019733E0880F991F3A95E4
:10094000E1F71C012818390888E090E04091730114
:10095000509174017A01E1E0EE1AF1089101281B2F
:10096000390B37FF06C0F1E0EF1AF108285F3F4F5F
:10097000F8CF6FEFE616F6060CF4ABCFFC0131971B
:100980006F01FFEFEF16FF0609F44EC0E416F506FF
:100990000CF04AC0283031050CF046C0E1E0F0E030
:1009A000EC0FFD1FEC0DFD1D6080B70193E0660F9D
:1009B000771F9A95E1F77C876B8780E890E002C00B
:1009C000959587952A95E2F78D87782F70957E8784
:1009D00027E0A22EB12C712C8091730190917401AB
:1009E000E816F906ECF48B859C858A199B0993011E
:1009F0000A2C02C0359527950A94E2F7FC01E35EC4
:100A0000FE4F20FF16C027893D85232B278B835E51
:100A10009E4FFC01478968E06A19C7010E940302E2
:100A2000F1E0AF1AB108C0F6C601009709F08ECF09
:100A300050CF27896E852623E9CF20E030E0232B95
:100A400009F486CE0E94000083CEF894FFCF000800
:100A50002A1C771C2A08486F6C61204D756E646FE4
:020A6000000094
:107E0000112484B714BE81FFF0D085E080938100F7
:107E100082E08093C00088E18093C10086E0809377
:107E2000C20080E18093C4008EE0C9D0259A86E02C
:107E300020E33CEF91E0309385002093840096BBD3
:107E4000B09BFECF1D9AA8958150A9F7CC24DD24C4
:107E500088248394B5E0AB2EA1E19A2EF3E0BF2EE7
:107E6000A2D0813461F49FD0082FAFD0023811F036
:107E7000013811F484E001C083E08DD089C08234E0
:107E800011F484E103C0853419F485E0A6D080C0E4
:107E9000853579F488D0E82EFF2485D0082F10E0AE
:107EA000102F00270E291F29000F111F8ED06801E7
:107EB0006FC0863521F484E090D080E0DECF843638
:107EC00009F040C070D06FD0082F6DD080E0C81688
:107ED00080E7D80618F4F601B7BEE895C0E0D1E017
:107EE00062D089930C17E1F7F0E0CF16F0E7DF06D8
:107EF00018F0F601B7BEE89568D007B600FCFDCFD4
:107F0000A601A0E0B1E02C9130E011968C91119780
:107F100090E0982F8827822B932B1296FA010C0160
:107F200087BEE89511244E5F5F4FF1E0A038BF0790
:107F300051F7F601A7BEE89507B600FCFDCF97BE46
:107F4000E89526C08437B1F42ED02DD0F82E2BD052
:107F50003CD0F601EF2C8F010F5F1F4F84911BD097
:107F6000EA94F801C1F70894C11CD11CFA94CF0C13
:107F7000D11C0EC0853739F428D08EE10CD085E9AC
:107F80000AD08FE07ACF813511F488E018D01DD067
:107F900080E101D065CF982F8091C00085FFFCCF94
:107FA0009093C60008958091C00087FFFCCF809118
:107FB000C00084FD01C0A8958091C6000895E0E648
:107FC000F0E098E1908380830895EDDF803219F02E
:107FD00088E0F5DFFFCF84E1DECF1F93182FE3DFCA
:107FE0001150E9F7F2DF1F91089580E0E8DFEE27F6
:047FF000FF270994CA
:027FFE00040479
:00000001FF
