:100000000C940F020C9430020C9430020C943002C9
:100010000C9430020C9430020C9430020C94300298
:100020000C9430020C9430020C9430020C94300288
:100030000C9430020C9430020C9430020C94300278
:100040000C9430020C9430020C9430020C94300268
:100050000C9430020C9430020C9430020C948803FF
:100060000C9430020C9430020C9430020C94300248
:100070000C9430020C9430020C9430020C94300238
:100080000C9430020C9430020C9430020C94300228
:100090000C9430020C9430020C9430020C94300218
:1000A0000C9430020C9430020C9430020C94300208
:1000B0000C9430020C9430020C9430020C943002F8
:1000C0000C9430020C9430020C9430020C943002E8
:1000D0000C9430020C9430020C9430020C943002D8
:1000E0000C9430020C94BF020C9486020C94AD0266
:1000F0000C94C9020C94A0020C94D3020C948102BB
:100100000C949C020C94B1020C9498020C94D702AB
:100110000C94BB020C94B7020C94A4020C94C5027C
:100120000C94CD020C94A70200000A0B02090C0DDE
:100130000E0807030401000000000000000000009A
:1001400000000000000000000000000000000000AF
:10015000000000001211100000000000000000006C
:100160000000000000000000000000000000007C13
:10017000FE928AFE7C00008088FEFE80800000C423
:10018000E6A2929E8C000044C69292FE6C00003063
:100190002824FEFE2000004ECE8A8AFA7200007CDF
:1001A000FE9292F66400000606E2FA1E0600006C5B
:1001B000FE9292FE6C00004CDE9292FE7C000040AB
:1001C000E8A8A8F8F00000FEFE9090F06000007033
:1001D000F88888D850000060F09090FEFE00007013
:1001E000F8A8A8B830000020FCFE22260400001861
:1001F000BCA4A4FC7C0000FEFE1010F0E000000097
:1002000080F4F48000000060E080FA7A000000FED4
:10021000FE2070D88800000000FEFE00000000F8FC
:10022000F830E030F8F800F8F81818F8F00000702E
:10023000F88888F8700000FCFC24243C18000018A2
:100240003C24FCFC80C000F8F8080838300000901E
:10025000A8A8A8A84800001010FCFC101000007806
:10026000F88080F8F800003070C0C070300000786E
:10027000F880F080F8780088D87070D8880000186E
:10028000B8A0A0F878000000C8E8B898000000FC0A
:10029000FE1212FEFC0000FEFE9292FE6C00007C3C
:1002A000FE8282C6440000FEFE8282FE7C0000FECA
:1002B000FE929292820000FEFE1212120200007C58
:1002C000FE82A2E6640000FEFE1010FEFE000000AA
:1002D00082FEFE8200000060E082FE7E020000FEE0
:1002E000FE386CC6820000FEFE808080800000FE2A
:1002F000FE0C180CFEFE00FEFE0C1830FEFE007C0C
:10030000FE8282FE7C0000FEFE22223E1C00003C9B
:100310007E4262FEBC0000FEFE3272DE8C00004CAB
:10032000DE9292F66400000602FEFE020600007EE7
:10033000FE8080FEFE00003E7EC0C07E3E0000FECD
:10034000FE603060FEFE00C6EE381038EEC6000ECD
:100350001EF0F01E0E0000C2E2B29A8E860000006F
:100360002200250028002B002E003100340002015D
:100370000000050108010B010000210024002700F6
:100380002A002D00300033000101000004010701A4
:100390000A0105050505070508080808020202020A
:1003A0000A0A080804040404010101010101010111
:1003B0000303030303030303040707070C0C0C0CDC
:1003C0000C0C0C0C020202020606060606060606C5
:1003D0000B0B0B0B0B0B0B0B010210202008081052
:1003E00020401020408002010201080402010102A5
:1003F000040810204080804020100804020180047E
:1004000002018040201008040201080402010102D8
:1004100004081020408001020408102040801124AC
:100420001FBECFEFD1E2DEBFCDBF00E00CBF12E0B8
:10043000A0E0B2E0E8EBFCE000E00BBF02C00790F8
:100440000D92A431B107D9F722E0A4E1B2E001C0D6
:100450001D92A637B207E1F70E94D2030C945A0608
:100460000C94000090E0FC01E852FC4F24918E5661
:100470009C4FFC018491882399F090E0880F991F8C
:10048000FC01E858FC4FA591B491FC01E25AFC4FE5
:10049000859194918FB7F894EC91E22BEC938FBFF8
:1004A0000895282F30E0F901E85DFE4F9491F9019D
:1004B000E852FC4F44912E563C4FF90124912223DF
:1004C00009F435C0992311F191509231F8F4E92FD4
:1004D000F0E08827E159FD4F8F4F0C945206A0029F
:1004E000A402810298029C028602A702AD02B10218
:1004F000B702BB02BF02C502C9028602CD02D30207
:10050000D702809180008F7780938000E22FF0E007
:10051000EE0FFF1FE25AFC4FA591B4918FB7F894EC
:10052000EC91611148C040954E234C938FBF0895C4
:10053000809180008F7DE8CF80918000877FE4CF1D
:1005400084B58F7784BDE2CF84B58F7DFBCF80915A
:10055000B0008F778093B000D9CF8091B0008F7DAD
:10056000F9CF809190008F7780939000CFCF8091CA
:1005700090008F7DF9CF80919000877FF5CF80919B
:10058000A0008F778093A000C1CF8091A0008F7DC5
:10059000F9CF8091A000877FF5CF809120018F77E0
:1005A00080932001B3CF809120018F7DF9CF80917E
:1005B0002001877FF5CF4E2BB8CF3FB7F8948091BD
:1005C000190290911A02A0911B02B0911C0226B54B
:1005D000A89B05C02F3F19F00196A11DB11D3FBF7B
:1005E000BA2FA92F982F8827BC01CD01620F711D4A
:1005F000811D911D42E0660F771F881F991F4A9544
:10060000D1F70895CF92DF92EF92FF920F931F934D
:10061000CF93DF931F921F92CDB7DEB769834A83D2
:10062000880F991F0091730210917402000F111F1F
:10063000EDE1F2E09F012D5132402017310714F413
:100640001192F8CF2981FC01E35EFD4F21838A815D
:10065000808360E0809171020E94510210161106A1
:1006600004F501501109F801E35EFD4FE080D090E0
:100670006F02C0906D0288E0F82E6E2D661F66270F
:10068000661F8C2D0E945102EE0C61E08D2D0E94A0
:10069000510260E08D2D0E945102FA94F110EDCFCD
:1006A000DDCF61E0809171020F900F90DF91CF91CB
:1006B0001F910F91FF90EF90DF90CF900C9451021B
:1006C000EF92FF921F93CF93DF93209173023091AB
:1006D000740282179307B4F4EC0123E0880F991F8A
:1006E0002A95E1F79C01235D3D4F790111E0F70167
:1006F00011927F0140E0612FCE010E9402031F5F33
:100700001930A9F7DF91CF911F91FF90EF900895D5
:100710001F920F920FB60F9211242F933F938F9336
:100720009F93AF93BF938091150290911602A09171
:100730001702B09118023091140223E0230F2D37D5
:1007400058F50196A11DB11D209314028093150246
:1007500090931602A0931702B09318028091190289
:1007600090911A02A0911B02B0911C020196A11D4A
:10077000B11D8093190290931A02A0931B02B093AB
:100780001C02BF91AF919F918F913F912F910F903C
:100790000FBE0F901F90189526E8230F0296A11DFB
:1007A000B11DD2CFCF93DF93CDB7DEB72E970FB663
:1007B000F894DEBF0FBECDBF789484B5826084BD4F
:1007C00084B5816084BD85B5826085BD85B5816055
:1007D00085BD80916E00816080936E0010928100D3
:1007E000809181008260809381008091810081608E
:1007F000809381008091800081608093800080914F
:10080000B10084608093B1008091B00081608093DA
:10081000B00080919100826080939100809191005E
:10082000816080939100809190008160809390001E
:100830008091A10082608093A1008091A1008160DD
:100840008093A1008091A00081608093A00080919E
:100850002101826080932101809121018160809338
:1008600021018091200181608093200180917A0094
:10087000846080937A0080917A00826080937A000D
:1008800080917A00816080937A0080917A008068FC
:1008900080937A001092C1000BE010E010936E027A
:1008A00000936D028DE090E09093700280936F0250
:1008B0008CE090E090937202809371021092750226
:1008C00081E090E090937402809373028BE00E9429
:1008D000320280916F020E943202809171020E9466
:1008E000320261E0809171020E94510210936E0207
:1008F00000936D02EDE2F2E08DE692E011928E1728
:100900009F07E1F710E000E080917302909174027C
:100910000817190744F540E06FE0C8010E94020380
:100920008091730290917402081719072CF447E024
:100930006BE0C8010E94020340E069E0C8010E9428
:100940000203C8010E9460038091730290917402B7
:10095000081719072CF440E06CE0C8010E9402035C
:100960000F5F1F4FD1CF10E000E080917302909194
:10097000740208171907BCF441E06CE0C8010E943A
:1009800002038091730290917402081719072CF4E6
:1009900048E06AE0C8010E940203C8010E946003A7
:1009A0000F5F1F4FE2CF10927502F12CE12C0091E6
:1009B000730210917402E016F1063CF4C7010E9424
:1009C00060032FEFE21AF20AF2CF63E0000F111F6B
:1009D0006A95E1F7013B3FEF13070CF45BC168E058
:1009E00072E07A8769874801280170E5470E511C3B
:1009F000E985FA858191FA87E98798E0E0E0F2E0FD
:100A0000DE01119601900D929A95E1F79FEB980FF8
:100A10009A3138F5F8E08F02C0011124DE011196F9
:100A200030E020E08A579F4FFC01E20FF31FE49172
:100A3000ED932F5F3F4F28303105B1F7809175025C
:100A40008111A2C0F12CE12CB701680D791D90E055
:100A500080E0683071050CF442C00196685071095D
:100A6000F8CF9FE9980F9A31A8F428E08202C001DC
:100A70001124DE01119630E020E08A549140FC01FF
:100A8000E20FF31FE491ED932F5F3F4F28303105C4
:100A9000B1F7D4CF90ED980F9A30A8F438E08302E4
:100AA000C0011124DE01119630E020E08251904017
:100AB000FC01E20FF31FE491ED932F5F3F4F2830CD
:100AC0003105B1F7BBCF803209F0B8CF19821A8255
:100AD0001B821C821D821E821F821886AFCF20912E
:100AE0007302309174028217930704F56830710520
:100AF000A8F4E1E0F0E0EC0FFD1FEE0DFF1D4081DA
:100B0000FC0153E0EE0FFF1F5A95E1F7E35EFD4F46
:100B1000E60FF71F408B6F5F0E9402036FEFE61A2C
:100B2000F60A78E0E716F10409F08ECF38E0830E7C
:100B3000911C8414950409F05BCF0E94DD024B01E7
:100B40005C0188ECC82ED12CE12CF12C0E94DD0236
:100B5000681979098A099B09683E734081059105E6
:100B6000A8F361E0C61AD108E108F10878EE870E13
:100B700073E0971EA11CB11CC114D104E104F1045F
:100B800029F70150110926CF8091730290917402C8
:100B9000019733E0880F991F3A95E1F71C01281857
:100BA000390888E090E040917302509174027A0114
:100BB000E1E0EE1AF1089101281B390B37FF06C05E
:100BC000F1E0EF1AF108285F3F4FF8CF6FEFE6161C
:100BD000F6060CF4ABCFFC0131976F01FFEFEF1677
:100BE000FF0609F44EC0E416F5060CF04AC02830A2
:100BF00031050CF046C0E1E0F0E0EC0FFD1FEC0D1C
:100C0000FD1D6080B70193E0660F771F9A95E1F7AD
:100C10007C876B8780E890E002C0959587952A9540
:100C2000E2F78D87782F70957E8727E0A22EB12C72
:100C3000712C8091730290917402E816F906ECF41D
:100C40008B859C858A199B0993010A2C02C03595D6
:100C500027950A94E2F7FC01E35EFD4F20FF16C0E2
:100C600027893D85232B278B835E9D4FFC01478978
:100C700068E06A19C7010E940203F1E0AF1AB108E7
:100C8000C0F6C601009709F08ECF50CF27896E8538
:100C90002623E9CF20E030E0232B09F486CE0E9402
:100CA000000083CEEE0FFF1F881F8BBF0790F691C9
:080CB000E02D1994F894FFCF28
:100CB80000082A1C771C2A08486F6C61204D756E45
:040CC800646F000055
:00000001FF
